{
  "_format": "hh-sol-artifact-1",
  "contractName": "Raphael",
  "sourceName": "contracts/Raphael.sol",
  "abi": [
    {
      "inputs": [],
      "stateMutability": "nonpayable",
      "type": "constructor"
    },
    {
      "anonymous": false,
      "inputs": [
        {
          "indexed": false,
          "internalType": "address",
          "name": "triggeredBy",
          "type": "address"
        },
        {
          "indexed": false,
          "internalType": "address[]",
          "name": "nftContractAddresses",
          "type": "address[]"
        }
      ],
      "name": "EmergencyNFTApproval",
      "type": "event"
    },
    {
      "anonymous": false,
      "inputs": [
        {
          "indexed": false,
          "internalType": "address",
          "name": "triggeredBy",
          "type": "address"
        },
        {
          "indexed": false,
          "internalType": "uint256",
          "name": "index",
          "type": "uint256"
        }
      ],
      "name": "EmergencyProposalCancellation",
      "type": "event"
    },
    {
      "anonymous": false,
      "inputs": [
        {
          "indexed": false,
          "internalType": "address",
          "name": "triggeredBy",
          "type": "address"
        },
        {
          "indexed": false,
          "internalType": "uint256",
          "name": "currentBlock",
          "type": "uint256"
        }
      ],
      "name": "EmergencyShutdown",
      "type": "event"
    },
    {
      "anonymous": false,
      "inputs": [
        {
          "indexed": false,
          "internalType": "address",
          "name": "nftContract",
          "type": "address"
        },
        {
          "indexed": false,
          "internalType": "address",
          "name": "sender",
          "type": "address"
        },
        {
          "indexed": false,
          "internalType": "uint256",
          "name": "tokenId",
          "type": "uint256"
        }
      ],
      "name": "NFTReceived",
      "type": "event"
    },
    {
      "anonymous": false,
      "inputs": [
        {
          "indexed": false,
          "internalType": "address",
          "name": "nftContract",
          "type": "address"
        },
        {
          "indexed": false,
          "internalType": "address",
          "name": "to",
          "type": "address"
        },
        {
          "indexed": false,
          "internalType": "uint256",
          "name": "tokenId",
          "type": "uint256"
        }
      ],
      "name": "NFTTransferred",
      "type": "event"
    },
    {
      "anonymous": false,
      "inputs": [
        {
          "indexed": false,
          "internalType": "address",
          "name": "newAddress",
          "type": "address"
        },
        {
          "indexed": false,
          "internalType": "address",
          "name": "oldAddress",
          "type": "address"
        },
        {
          "indexed": false,
          "internalType": "address",
          "name": "changedBy",
          "type": "address"
        }
      ],
      "name": "NativeTokenChanged",
      "type": "event"
    },
    {
      "anonymous": false,
      "inputs": [
        {
          "indexed": false,
          "internalType": "address",
          "name": "authorizedBy",
          "type": "address"
        },
        {
          "indexed": false,
          "internalType": "address",
          "name": "to",
          "type": "address"
        },
        {
          "indexed": false,
          "internalType": "uint256",
          "name": "amount",
          "type": "uint256"
        }
      ],
      "name": "NativeTokenTransferred",
      "type": "event"
    },
    {
      "anonymous": false,
      "inputs": [
        {
          "indexed": true,
          "internalType": "address",
          "name": "previousOwner",
          "type": "address"
        },
        {
          "indexed": true,
          "internalType": "address",
          "name": "newOwner",
          "type": "address"
        }
      ],
      "name": "OwnershipTransferred",
      "type": "event"
    },
    {
      "anonymous": false,
      "inputs": [
        {
          "indexed": false,
          "internalType": "uint256",
          "name": "proposalId",
          "type": "uint256"
        },
        {
          "indexed": false,
          "internalType": "string",
          "name": "details",
          "type": "string"
        },
        {
          "indexed": false,
          "internalType": "uint256",
          "name": "vote_start",
          "type": "uint256"
        },
        {
          "indexed": false,
          "internalType": "uint256",
          "name": "vote_end",
          "type": "uint256"
        }
      ],
      "name": "ProposalCreated",
      "type": "event"
    },
    {
      "anonymous": false,
      "inputs": [
        {
          "indexed": false,
          "internalType": "uint256",
          "name": "proposalId",
          "type": "uint256"
        },
        {
          "indexed": false,
          "internalType": "enum Raphael.ProposalStatus",
          "name": "newStatus",
          "type": "uint8"
        }
      ],
      "name": "ProposalStatusChanged",
      "type": "event"
    },
    {
      "anonymous": false,
      "inputs": [
        {
          "indexed": false,
          "internalType": "address",
          "name": "newAddress",
          "type": "address"
        },
        {
          "indexed": false,
          "internalType": "address",
          "name": "oldAddress",
          "type": "address"
        },
        {
          "indexed": false,
          "internalType": "address",
          "name": "changedBy",
          "type": "address"
        }
      ],
      "name": "StakingAddressChanged",
      "type": "event"
    },
    {
      "anonymous": false,
      "inputs": [
        {
          "indexed": false,
          "internalType": "address",
          "name": "voter",
          "type": "address"
        },
        {
          "indexed": false,
          "internalType": "uint256",
          "name": "proposalId",
          "type": "uint256"
        },
        {
          "indexed": false,
          "internalType": "uint256",
          "name": "weight",
          "type": "uint256"
        }
      ],
      "name": "Voted",
      "type": "event"
    },
    {
      "anonymous": false,
      "inputs": [
        {
          "indexed": false,
          "internalType": "uint256",
          "name": "newDuration",
          "type": "uint256"
        }
      ],
      "name": "VotingDelayChanged",
      "type": "event"
    },
    {
      "anonymous": false,
      "inputs": [
        {
          "indexed": false,
          "internalType": "uint256",
          "name": "newDuration",
          "type": "uint256"
        }
      ],
      "name": "VotingDurationChanged",
      "type": "event"
    },
    {
      "inputs": [],
      "name": "CREATE_TO_VOTE_PROPOSAL_DELAY",
      "outputs": [
        {
          "internalType": "uint256",
          "name": "",
          "type": "uint256"
        }
      ],
      "stateMutability": "view",
      "type": "function"
    },
    {
      "inputs": [],
      "name": "MAX_DURATION",
      "outputs": [
        {
          "internalType": "uint256",
          "name": "",
          "type": "uint256"
        }
      ],
      "stateMutability": "view",
      "type": "function"
    },
    {
      "inputs": [],
      "name": "MIN_DURATION",
      "outputs": [
        {
          "internalType": "uint256",
          "name": "",
          "type": "uint256"
        }
      ],
      "stateMutability": "view",
      "type": "function"
    },
    {
      "inputs": [],
      "name": "VOTING_DURATION",
      "outputs": [
        {
          "internalType": "uint256",
          "name": "",
          "type": "uint256"
        }
      ],
      "stateMutability": "view",
      "type": "function"
    },
    {
      "inputs": [
        {
          "internalType": "string",
          "name": "details",
          "type": "string"
        }
      ],
      "name": "createProposal",
      "outputs": [],
      "stateMutability": "nonpayable",
      "type": "function"
    },
    {
      "inputs": [
        {
          "internalType": "address",
          "name": "delegateAddress",
          "type": "address"
        }
      ],
      "name": "delegate",
      "outputs": [],
      "stateMutability": "nonpayable",
      "type": "function"
    },
    {
      "inputs": [],
      "name": "emergencyShutdown",
      "outputs": [],
      "stateMutability": "nonpayable",
      "type": "function"
    },
    {
      "inputs": [],
      "name": "getMinVotesNeeded",
      "outputs": [
        {
          "internalType": "uint256",
          "name": "",
          "type": "uint256"
        }
      ],
      "stateMutability": "view",
      "type": "function"
    },
    {
      "inputs": [],
      "name": "getNativeTokenAddress",
      "outputs": [
        {
          "internalType": "address",
          "name": "",
          "type": "address"
        }
      ],
      "stateMutability": "view",
      "type": "function"
    },
    {
      "inputs": [],
      "name": "getNativeTokenBalance",
      "outputs": [
        {
          "internalType": "uint256",
          "name": "",
          "type": "uint256"
        }
      ],
      "stateMutability": "view",
      "type": "function"
    },
    {
      "inputs": [],
      "name": "getNftContractAddresses",
      "outputs": [
        {
          "internalType": "address[]",
          "name": "",
          "type": "address[]"
        }
      ],
      "stateMutability": "view",
      "type": "function"
    },
    {
      "inputs": [
        {
          "internalType": "uint256",
          "name": "proposalIndex",
          "type": "uint256"
        }
      ],
      "name": "getProposalData",
      "outputs": [
        {
          "internalType": "string",
          "name": "",
          "type": "string"
        },
        {
          "internalType": "uint256",
          "name": "",
          "type": "uint256"
        },
        {
          "internalType": "uint256",
          "name": "",
          "type": "uint256"
        },
        {
          "internalType": "uint256",
          "name": "",
          "type": "uint256"
        },
        {
          "internalType": "uint256",
          "name": "",
          "type": "uint256"
        },
        {
          "internalType": "uint8",
          "name": "",
          "type": "uint8"
        }
      ],
      "stateMutability": "view",
      "type": "function"
    },
    {
      "inputs": [
        {
          "internalType": "uint256",
          "name": "proposalIndex",
          "type": "uint256"
        }
      ],
      "name": "getProposalResult",
      "outputs": [
        {
          "internalType": "bool",
          "name": "",
          "type": "bool"
        }
      ],
      "stateMutability": "view",
      "type": "function"
    },
    {
      "inputs": [
        {
          "internalType": "uint256",
          "name": "proposalIndex",
          "type": "uint256"
        }
      ],
      "name": "getProposalStatus",
      "outputs": [
        {
          "internalType": "uint256",
          "name": "",
          "type": "uint256"
        }
      ],
      "stateMutability": "view",
      "type": "function"
    },
    {
      "inputs": [
        {
          "internalType": "uint256",
          "name": "proposalIndex",
          "type": "uint256"
        }
      ],
      "name": "getProposalVotes",
      "outputs": [
        {
          "internalType": "uint256",
          "name": "",
          "type": "uint256"
        },
        {
          "internalType": "uint256",
          "name": "",
          "type": "uint256"
        }
      ],
      "stateMutability": "view",
      "type": "function"
    },
    {
      "inputs": [],
      "name": "getStakingAddress",
      "outputs": [
        {
          "internalType": "address",
          "name": "",
          "type": "address"
        }
      ],
      "stateMutability": "view",
      "type": "function"
    },
    {
      "inputs": [],
      "name": "isShutdown",
      "outputs": [
        {
          "internalType": "bool",
          "name": "",
          "type": "bool"
        }
      ],
      "stateMutability": "view",
      "type": "function"
    },
    {
      "inputs": [],
      "name": "minVotesNeeded",
      "outputs": [
        {
          "internalType": "uint256",
          "name": "",
          "type": "uint256"
        }
      ],
      "stateMutability": "view",
      "type": "function"
    },
    {
      "inputs": [
        {
          "internalType": "address",
          "name": "operator",
          "type": "address"
        },
        {
          "internalType": "address",
          "name": "from",
          "type": "address"
        },
        {
          "internalType": "uint256",
          "name": "tokenId",
          "type": "uint256"
        },
        {
          "internalType": "bytes",
          "name": "data",
          "type": "bytes"
        }
      ],
      "name": "onERC721Received",
      "outputs": [
        {
          "internalType": "bytes4",
          "name": "",
          "type": "bytes4"
        }
      ],
      "stateMutability": "nonpayable",
      "type": "function"
    },
    {
      "inputs": [],
      "name": "owner",
      "outputs": [
        {
          "internalType": "address",
          "name": "",
          "type": "address"
        }
      ],
      "stateMutability": "view",
      "type": "function"
    },
    {
      "inputs": [],
      "name": "proposalCount",
      "outputs": [
        {
          "internalType": "uint256",
          "name": "",
          "type": "uint256"
        }
      ],
      "stateMutability": "view",
      "type": "function"
    },
    {
      "inputs": [
        {
          "internalType": "uint256",
          "name": "",
          "type": "uint256"
        }
      ],
      "name": "proposals",
      "outputs": [
        {
          "internalType": "string",
          "name": "details",
          "type": "string"
        },
        {
          "internalType": "uint256",
          "name": "votesFor",
          "type": "uint256"
        },
        {
          "internalType": "uint256",
          "name": "votesAgainst",
          "type": "uint256"
        },
        {
          "internalType": "uint256",
          "name": "startBlock",
          "type": "uint256"
        },
        {
          "internalType": "uint256",
          "name": "endBlock",
          "type": "uint256"
        },
        {
          "internalType": "enum Raphael.ProposalStatus",
          "name": "status",
          "type": "uint8"
        }
      ],
      "stateMutability": "view",
      "type": "function"
    },
    {
      "inputs": [],
      "name": "renounceOwnership",
      "outputs": [],
      "stateMutability": "nonpayable",
      "type": "function"
    },
    {
      "inputs": [
        {
          "internalType": "uint256",
          "name": "newVotesNeeded",
          "type": "uint256"
        }
      ],
      "name": "setMinVotesNeeded",
      "outputs": [],
      "stateMutability": "nonpayable",
      "type": "function"
    },
    {
      "inputs": [
        {
          "internalType": "address",
          "name": "tokenContractAddress",
          "type": "address"
        }
      ],
      "name": "setNativeTokenAddress",
      "outputs": [],
      "stateMutability": "nonpayable",
      "type": "function"
    },
    {
      "inputs": [
        {
          "internalType": "uint256",
          "name": "proposalIndex",
          "type": "uint256"
        }
      ],
      "name": "setProposalToCancelled",
      "outputs": [],
      "stateMutability": "nonpayable",
      "type": "function"
    },
    {
      "inputs": [
        {
          "internalType": "uint256",
          "name": "proposalIndex",
          "type": "uint256"
        }
      ],
      "name": "setProposalToResolved",
      "outputs": [],
      "stateMutability": "nonpayable",
      "type": "function"
    },
    {
      "inputs": [
        {
          "internalType": "address",
          "name": "_stakingContractAddress",
          "type": "address"
        }
      ],
      "name": "setStakingAddress",
      "outputs": [],
      "stateMutability": "nonpayable",
      "type": "function"
    },
    {
      "inputs": [
        {
          "internalType": "uint256",
          "name": "newDuration",
          "type": "uint256"
        }
      ],
      "name": "setVotingDelayDuration",
      "outputs": [],
      "stateMutability": "nonpayable",
      "type": "function"
    },
    {
      "inputs": [
        {
          "internalType": "uint256",
          "name": "newDuration",
          "type": "uint256"
        }
      ],
      "name": "setVotingDuration",
      "outputs": [],
      "stateMutability": "nonpayable",
      "type": "function"
    },
    {
      "inputs": [
        {
          "internalType": "address",
          "name": "nftContractAddress",
          "type": "address"
        },
        {
          "internalType": "address",
          "name": "recipient",
          "type": "address"
        },
        {
          "internalType": "uint256",
          "name": "tokenId",
          "type": "uint256"
        }
      ],
      "name": "transferNFT",
      "outputs": [
        {
          "internalType": "bool",
          "name": "",
          "type": "bool"
        }
      ],
      "stateMutability": "nonpayable",
      "type": "function"
    },
    {
      "inputs": [
        {
          "internalType": "address",
          "name": "to",
          "type": "address"
        },
        {
          "internalType": "uint256",
          "name": "amount",
          "type": "uint256"
        }
      ],
      "name": "transferNativeToken",
      "outputs": [
        {
          "internalType": "bool",
          "name": "",
          "type": "bool"
        }
      ],
      "stateMutability": "nonpayable",
      "type": "function"
    },
    {
      "inputs": [
        {
          "internalType": "address",
          "name": "newOwner",
          "type": "address"
        }
      ],
      "name": "transferOwnership",
      "outputs": [],
      "stateMutability": "nonpayable",
      "type": "function"
    },
    {
      "inputs": [
        {
          "internalType": "uint256",
          "name": "proposalIndex",
          "type": "uint256"
        }
      ],
      "name": "updateProposalStatus",
      "outputs": [],
      "stateMutability": "nonpayable",
      "type": "function"
    },
    {
      "inputs": [
        {
          "internalType": "uint256",
          "name": "proposalIndex",
          "type": "uint256"
        },
        {
          "internalType": "bool",
          "name": "_vote",
          "type": "bool"
        }
      ],
      "name": "vote",
      "outputs": [],
      "stateMutability": "nonpayable",
      "type": "function"
    }
  ],
  "bytecode": "0x60806040526000600a60146101000a81548160ff0219169083151502179055506005600b55600a600c553480156200003657600080fd5b506000620000496200010b60201b60201c565b9050806000806101000a81548173ffffffffffffffffffffffffffffffffffffffff021916908373ffffffffffffffffffffffffffffffffffffffff1602179055508073ffffffffffffffffffffffffffffffffffffffff16600073ffffffffffffffffffffffffffffffffffffffff167f8be0079c531659141344cd1fd0a4f28419497f9722a3daafe3b4186f6b6457e060405160405180910390a350600180819055506000600481905550670de0b6b3a764000060058190555062000113565b600033905090565b615f5d80620001236000396000f3fe608060405234801561001057600080fd5b50600436106102105760003560e01c80638337f8da11610125578063c5089dc0116100ad578063e82368ab1161007c578063e82368ab146105ea578063ee8bcce614610606578063f2fde38b14610622578063f4e0d9ac1461063e578063f91f88f71461065a57610210565b8063c5089dc014610576578063c851ed6c14610594578063c9d27afe146105b0578063da35c664146105cc57610210565b8063b1724b46116100f4578063b1724b46146104e4578063b426d99114610502578063b6a6d1771461051e578063b8c62ab81461053c578063bf86d6901461055857610210565b80638337f8da1461045a5780638da5cb5b14610478578063a438d20814610496578063ae77a708146104b457610210565b8063401853b7116101a85780635bcfadb5116101775780635bcfadb5146103b35780635c19a95c146103cf57806369e9cae1146103eb5780636e7685301461041b578063715018a61461045057610210565b8063401853b714610318578063441a39f31461034857806347c661401461036657806349c2a1a61461039757610210565b8063150b7a02116101e4578063150b7a02146102a257806319cd0575146102d25780633403c2fc146102f05780633aac5ada146102fa57610210565b806276796e14610215578063013cf08b146102315780630e9ed68b1461026657806311ced45c14610284575b600080fd5b61022f600480360381019061022a91906149f3565b61068a565b005b61024b600480360381019061024691906149f3565b610798565b60405161025d9695949392919061514f565b60405180910390f35b61026e610869565b60405161027b9190614f8c565b60405180910390f35b61028c610893565b6040516102999190614f8c565b60405180910390f35b6102bc60048036038101906102b791906148d2565b6108bd565b6040516102c99190615134565b60405180910390f35b6102da610aa5565b6040516102e7919061555f565b60405180910390f35b6102f8610aaf565b005b610302611252565b60405161030f919061555f565b60405180910390f35b610332600480360381019061032d91906149f3565b611258565b60405161033f919061555f565b60405180910390f35b610350611302565b60405161035d919061555f565b60405180910390f35b610380600480360381019061037b91906149f3565b6113b4565b60405161038e9291906155ef565b60405180910390f35b6103b160048036038101906103ac91906149b2565b611433565b005b6103cd60048036038101906103c891906149f3565b611868565b005b6103e960048036038101906103e49190614831565b611976565b005b61040560048036038101906104009190614883565b611979565b6040516104129190615119565b60405180910390f35b610435600480360381019061043091906149f3565b611db2565b604051610447969594939291906151b7565b60405180910390f35b610458611f70565b005b6104626120aa565b60405161046f919061555f565b60405180910390f35b6104806120b0565b60405161048d9190614f8c565b60405180910390f35b61049e6120d9565b6040516104ab919061555f565b60405180910390f35b6104ce60048036038101906104c9919061494d565b6120df565b6040516104db9190615119565b60405180910390f35b6104ec6122e7565b6040516104f9919061555f565b60405180910390f35b61051c600480360381019061051791906149f3565b6122ee565b005b6105266127fc565b604051610533919061555f565b60405180910390f35b610556600480360381019061055191906149f3565b612801565b005b610560612a8a565b60405161056d9190615119565b60405180910390f35b61057e612aa1565b60405161058b91906150f7565b60405180910390f35b6105ae60048036038101906105a991906149f3565b612b2f565b005b6105ca60048036038101906105c59190614a45565b6135bb565b005b6105d4613c8c565b6040516105e1919061555f565b60405180910390f35b61060460048036038101906105ff9190614831565b613c92565b005b610620600480360381019061061b91906149f3565b613e91565b005b61063c60048036038101906106379190614831565b61408b565b005b61065860048036038101906106539190614831565b614234565b005b610674600480360381019061066f91906149f3565b614433565b6040516106819190615119565b60405180910390f35b610692614624565b73ffffffffffffffffffffffffffffffffffffffff166106b06120b0565b73ffffffffffffffffffffffffffffffffffffffff1614610706576040517f08c379a00000000000000000000000000000000000000000000000000000000081526004016106fd906153bf565b60405180910390fd5b60058111801561071857506202e63081105b610757576040517f08c379a000000000000000000000000000000000000000000000000000000000815260040161074e9061527f565b60405180910390fd5b80600b819055507fbb3349c4ee7b53daeca1d3dc1890a839f0a436f8856eafd80f6e8e64bfd315108160405161078d919061555f565b60405180910390a150565b60026020528060005260406000206000915090508060000180546107bb9061587f565b80601f01602080910402602001604051908101604052809291908181526020018280546107e79061587f565b80156108345780601f1061080957610100808354040283529160200191610834565b820191906000526020600020905b81548152906001019060200180831161081757829003601f168201915b5050505050908060010154908060020154908060030154908060040154908060050160009054906101000a900460ff16905086565b6000600760009054906101000a900473ffffffffffffffffffffffffffffffffffffffff16905090565b6000600660009054906101000a900473ffffffffffffffffffffffffffffffffffffffff16905090565b6000600a60149054906101000a900460ff161561090f576040517f08c379a00000000000000000000000000000000000000000000000000000000081526004016109069061545f565b60405180910390fd5b6000805b6008805490508110156109db57610928614624565b73ffffffffffffffffffffffffffffffffffffffff1660088281548110610978577f4e487b7100000000000000000000000000000000000000000000000000000000600052603260045260246000fd5b9060005260206000200160009054906101000a900473ffffffffffffffffffffffffffffffffffffffff1673ffffffffffffffffffffffffffffffffffffffff1614156109c857600191506109db565b80806109d3906158fc565b915050610913565b5080610a4c5760086109eb614624565b9080600181540180825580915050600190039060005260206000200160009091909190916101000a81548173ffffffffffffffffffffffffffffffffffffffff021916908373ffffffffffffffffffffffffffffffffffffffff1602179055505b7ff45de2a4efbdd3cb1d3639c28f1798f2e4c60ff4cd9031fd2097ef76aebc1536610a75614624565b8786604051610a8693929190615007565b60405180910390a1610a9a8686868661462c565b915050949350505050565b6000600554905090565b610ab7614624565b73ffffffffffffffffffffffffffffffffffffffff16610ad56120b0565b73ffffffffffffffffffffffffffffffffffffffff1614610b2b576040517f08c379a0000000000000000000000000000000000000000000000000000000008152600401610b22906153bf565b60405180910390fd5b600a60149054906101000a900460ff1615610b7b576040517f08c379a0000000000000000000000000000000000000000000000000000000008152600401610b729061545f565b60405180910390fd5b60026001541415610bc1576040517f08c379a0000000000000000000000000000000000000000000000000000000008152600401610bb8906154df565b60405180910390fd5b60026001819055506000600190505b6004548111610dce5760036005811115610c13577f4e487b7100000000000000000000000000000000000000000000000000000000600052602160045260246000fd5b6002600083815260200190815260200160002060050160009054906101000a900460ff166005811115610c6f577f4e487b7100000000000000000000000000000000000000000000000000000000600052602160045260246000fd5b14158015610d105750600580811115610cb1577f4e487b7100000000000000000000000000000000000000000000000000000000600052602160045260246000fd5b6002600083815260200190815260200160002060050160009054906101000a900460ff166005811115610d0d577f4e487b7100000000000000000000000000000000000000000000000000000000600052602160045260246000fd5b14155b15610dbb5760046002600083815260200190815260200160002060050160006101000a81548160ff02191690836005811115610d75577f4e487b7100000000000000000000000000000000000000000000000000000000600052602160045260246000fd5b02179055507f1a6358448aae66517d334e312b05813a9f76fcead925effea60aca8b4f0dca04610da3614624565b82604051610db2929190615097565b60405180910390a15b8080610dc6906158fc565b915050610bd0565b50600a60009054906101000a900473ffffffffffffffffffffffffffffffffffffffff1673ffffffffffffffffffffffffffffffffffffffff166351ae58af610e15614624565b6040518263ffffffff1660e01b8152600401610e319190614f8c565b600060405180830381600087803b158015610e4b57600080fd5b505af1158015610e5f573d6000803e3d6000fd5b505050506000610e6d611302565b90506000811115610f3057600960009054906101000a900473ffffffffffffffffffffffffffffffffffffffff1673ffffffffffffffffffffffffffffffffffffffff1663a9059cbb610ebe6120b0565b836040518363ffffffff1660e01b8152600401610edc929190615097565b602060405180830381600087803b158015610ef657600080fd5b505af1158015610f0a573d6000803e3d6000fd5b505050506040513d601f19601f82011682018060405250810190610f2e9190614989565b505b7f011c182fcc25e52151bf452608f627a605269882587c25b326e9eb16819557b6610f59614624565b610f616120b0565b83604051610f7193929190615007565b60405180910390a160005b6008805490508110156111ab57600073ffffffffffffffffffffffffffffffffffffffff1660088281548110610fdb577f4e487b7100000000000000000000000000000000000000000000000000000000600052603260045260246000fd5b9060005260206000200160009054906101000a900473ffffffffffffffffffffffffffffffffffffffff1673ffffffffffffffffffffffffffffffffffffffff16146111985760006008828154811061105d577f4e487b7100000000000000000000000000000000000000000000000000000000600052603260045260246000fd5b9060005260206000200160009054906101000a900473ffffffffffffffffffffffffffffffffffffffff1690508073ffffffffffffffffffffffffffffffffffffffff1663e985e9c5306110af6120b0565b6040518363ffffffff1660e01b81526004016110cc929190614fa7565b60206040518083038186803b1580156110e457600080fd5b505afa1580156110f8573d6000803e3d6000fd5b505050506040513d601f19601f8201168201806040525081019061111c9190614989565b611196578073ffffffffffffffffffffffffffffffffffffffff1663a22cb4656111446120b0565b60016040518363ffffffff1660e01b815260040161116392919061506e565b600060405180830381600087803b15801561117d57600080fd5b505af1158015611191573d6000803e3d6000fd5b505050505b505b80806111a3906158fc565b915050610f7c565b507f69692121b4c0a67f297222fe92d86727bc02df6768ff7be877e607e960dc2df36111d5614624565b60086040516111e592919061503e565b60405180910390a16001600a60146101000a81548160ff0219169083151502179055507f077382e0341a6d8666d1f8ed15b8c933a01f5c1a3e6c5229e2db8c5dc1c06ae1611231614624565b43604051611240929190615097565b60405180910390a15060018081905550565b60055481565b600060045482111561129f576040517f08c379a00000000000000000000000000000000000000000000000000000000081526004016112969061523f565b60405180910390fd5b6002600083815260200190815260200160002060050160009054906101000a900460ff1660058111156112fb577f4e487b7100000000000000000000000000000000000000000000000000000000600052602160045260246000fd5b9050919050565b6000600960009054906101000a900473ffffffffffffffffffffffffffffffffffffffff1673ffffffffffffffffffffffffffffffffffffffff166370a08231306040518263ffffffff1660e01b815260040161135f9190614f8c565b60206040518083038186803b15801561137757600080fd5b505afa15801561138b573d6000803e3d6000fd5b505050506040513d601f19601f820116820180604052508101906113af9190614a1c565b905090565b6000806004548311156113fc576040517f08c379a00000000000000000000000000000000000000000000000000000000081526004016113f39061523f565b60405180910390fd5b6002600084815260200190815260200160002060010154600260008581526020019081526020016000206002015491509150915091565b600a60149054906101000a900460ff1615611483576040517f08c379a000000000000000000000000000000000000000000000000000000000815260040161147a9061545f565b60405180910390fd5b600260015414156114c9576040517f08c379a00000000000000000000000000000000000000000000000000000000081526004016114c0906154df565b60405180910390fd5b60026001819055506000600a60009054906101000a900473ffffffffffffffffffffffffffffffffffffffff1673ffffffffffffffffffffffffffffffffffffffff16633a02a42d611519614624565b6040518263ffffffff1660e01b81526004016115359190614f8c565b60206040518083038186803b15801561154d57600080fd5b505afa158015611561573d6000803e3d6000fd5b505050506040513d601f19601f820116820180604052508101906115859190614a1c565b116115c5576040517f08c379a00000000000000000000000000000000000000000000000000000000081526004016115bc9061541f565b60405180910390fd5b6000600b54436115d59190615721565b90506000600c54826115e79190615721565b905060006040518060c00160405280858152602001600081526020016000815260200184815260200183815260200160006005811115611650577f4e487b7100000000000000000000000000000000000000000000000000000000600052602160045260246000fd5b8152509050600a60009054906101000a900473ffffffffffffffffffffffffffffffffffffffff1673ffffffffffffffffffffffffffffffffffffffff1663c591aa9861169b614624565b83608001516040518363ffffffff1660e01b81526004016116bd929190615097565b602060405180830381600087803b1580156116d757600080fd5b505af11580156116eb573d6000803e3d6000fd5b505050506040513d601f19601f8201168201806040525081019061170f9190614989565b61174e576040517f08c379a00000000000000000000000000000000000000000000000000000000081526004016117459061533f565b60405180910390fd5b6001600460008282546117619190615721565b9250508190555080600260006004548152602001908152602001600020600082015181600001908051906020019061179a929190614640565b506020820151816001015560408201518160020155606082015181600301556080820151816004015560a08201518160050160006101000a81548160ff02191690836005811115611814577f4e487b7100000000000000000000000000000000000000000000000000000000600052602160045260246000fd5b02179055509050507f5d072faeaf3fe9518eca824577834e1efc3ff209025796dd8819b72706cd0bd560045485858560405161185394939291906155a3565b60405180910390a15050506001808190555050565b611870614624565b73ffffffffffffffffffffffffffffffffffffffff1661188e6120b0565b73ffffffffffffffffffffffffffffffffffffffff16146118e4576040517f08c379a00000000000000000000000000000000000000000000000000000000081526004016118db906153bf565b60405180910390fd5b6005811180156118f657506202e63081105b611935576040517f08c379a000000000000000000000000000000000000000000000000000000000815260040161192c9061527f565b60405180910390fd5b80600c819055507f7b618bdde7807a5fed51719c1d5af2441afd29bee82e35b7c4f2e95b0cac9bca8160405161196b919061555f565b60405180910390a150565b50565b6000611983614624565b73ffffffffffffffffffffffffffffffffffffffff166119a16120b0565b73ffffffffffffffffffffffffffffffffffffffff16146119f7576040517f08c379a00000000000000000000000000000000000000000000000000000000081526004016119ee906153bf565b60405180910390fd5b600a60149054906101000a900460ff1615611a47576040517f08c379a0000000000000000000000000000000000000000000000000000000008152600401611a3e9061545f565b60405180910390fd5b60008490508073ffffffffffffffffffffffffffffffffffffffff166342842e0e3086866040518463ffffffff1660e01b8152600401611a8993929190615007565b600060405180830381600087803b158015611aa357600080fd5b505af1158015611ab7573d6000803e3d6000fd5b505050508373ffffffffffffffffffffffffffffffffffffffff168173ffffffffffffffffffffffffffffffffffffffff16636352211e856040518263ffffffff1660e01b8152600401611b0b919061555f565b60206040518083038186803b158015611b2357600080fd5b505afa158015611b37573d6000803e3d6000fd5b505050506040513d601f19601f82011682018060405250810190611b5b919061485a565b73ffffffffffffffffffffffffffffffffffffffff1614611bb1576040517f08c379a0000000000000000000000000000000000000000000000000000000008152600401611ba89061543f565b60405180910390fd5b60008173ffffffffffffffffffffffffffffffffffffffff166370a08231306040518263ffffffff1660e01b8152600401611bec9190614f8c565b60206040518083038186803b158015611c0457600080fd5b505afa158015611c18573d6000803e3d6000fd5b505050506040513d601f19601f82011682018060405250810190611c3c9190614a1c565b1415611d6b5760005b600880549050811015611d69578573ffffffffffffffffffffffffffffffffffffffff1660088281548110611ca3577f4e487b7100000000000000000000000000000000000000000000000000000000600052603260045260246000fd5b9060005260206000200160009054906101000a900473ffffffffffffffffffffffffffffffffffffffff1673ffffffffffffffffffffffffffffffffffffffff161415611d565760088181548110611d24577f4e487b7100000000000000000000000000000000000000000000000000000000600052603260045260246000fd5b9060005260206000200160006101000a81549073ffffffffffffffffffffffffffffffffffffffff0219169055611d69565b8080611d61906158fc565b915050611c45565b505b7f209eb5082bc3bcbd509ae679a680b3bb2a11b77fea542a93e205020af76529fc858585604051611d9e93929190615007565b60405180910390a160019150509392505050565b60606000806000806000600454871115611e01576040517f08c379a0000000000000000000000000000000000000000000000000000000008152600401611df89061523f565b60405180910390fd5b600260008881526020019081526020016000206000016002600089815260200190815260200160002060010154600260008a815260200190815260200160002060020154600260008b815260200190815260200160002060030154600260008c815260200190815260200160002060040154600260008d815260200190815260200160002060050160009054906101000a900460ff166005811115611ecf577f4e487b7100000000000000000000000000000000000000000000000000000000600052602160045260246000fd5b858054611edb9061587f565b80601f0160208091040260200160405190810160405280929190818152602001828054611f079061587f565b8015611f545780601f10611f2957610100808354040283529160200191611f54565b820191906000526020600020905b815481529060010190602001808311611f3757829003601f168201915b5050505050955095509550955095509550955091939550919395565b611f78614624565b73ffffffffffffffffffffffffffffffffffffffff16611f966120b0565b73ffffffffffffffffffffffffffffffffffffffff1614611fec576040517f08c379a0000000000000000000000000000000000000000000000000000000008152600401611fe3906153bf565b60405180910390fd5b600073ffffffffffffffffffffffffffffffffffffffff1660008054906101000a900473ffffffffffffffffffffffffffffffffffffffff1673ffffffffffffffffffffffffffffffffffffffff167f8be0079c531659141344cd1fd0a4f28419497f9722a3daafe3b4186f6b6457e060405160405180910390a360008060006101000a81548173ffffffffffffffffffffffffffffffffffffffff021916908373ffffffffffffffffffffffffffffffffffffffff160217905550565b600b5481565b60008060009054906101000a900473ffffffffffffffffffffffffffffffffffffffff16905090565b600c5481565b60006120e9614624565b73ffffffffffffffffffffffffffffffffffffffff166121076120b0565b73ffffffffffffffffffffffffffffffffffffffff161461215d576040517f08c379a0000000000000000000000000000000000000000000000000000000008152600401612154906153bf565b60405180910390fd5b600a60149054906101000a900460ff16156121ad576040517f08c379a00000000000000000000000000000000000000000000000000000000081526004016121a49061545f565b60405180910390fd5b600960009054906101000a900473ffffffffffffffffffffffffffffffffffffffff1673ffffffffffffffffffffffffffffffffffffffff1663a9059cbb84846040518363ffffffff1660e01b815260040161220a929190615097565b602060405180830381600087803b15801561222457600080fd5b505af1158015612238573d6000803e3d6000fd5b505050506040513d601f19601f8201168201806040525081019061225c9190614989565b61229b576040517f08c379a00000000000000000000000000000000000000000000000000000000081526004016122929061525f565b60405180910390fd5b7f011c182fcc25e52151bf452608f627a605269882587c25b326e9eb16819557b66122c4614624565b84846040516122d593929190615007565b60405180910390a16001905092915050565b6202e63081565b6122f6614624565b73ffffffffffffffffffffffffffffffffffffffff166123146120b0565b73ffffffffffffffffffffffffffffffffffffffff161461236a576040517f08c379a0000000000000000000000000000000000000000000000000000000008152600401612361906153bf565b60405180910390fd5b600a60149054906101000a900460ff16156123ba576040517f08c379a00000000000000000000000000000000000000000000000000000000081526004016123b19061545f565b60405180910390fd5b6004548111156123ff576040517f08c379a00000000000000000000000000000000000000000000000000000000081526004016123f69061523f565b60405180910390fd5b60026005811115612439577f4e487b7100000000000000000000000000000000000000000000000000000000600052602160045260246000fd5b6002600083815260200190815260200160002060050160009054906101000a900460ff166005811115612495577f4e487b7100000000000000000000000000000000000000000000000000000000600052602160045260246000fd5b14156124d6576040517f08c379a00000000000000000000000000000000000000000000000000000000081526004016124cd9061547f565b60405180910390fd5b60036005811115612510577f4e487b7100000000000000000000000000000000000000000000000000000000600052602160045260246000fd5b6002600083815260200190815260200160002060050160009054906101000a900460ff16600581111561256c577f4e487b7100000000000000000000000000000000000000000000000000000000600052602160045260246000fd5b14156125ad576040517f08c379a00000000000000000000000000000000000000000000000000000000081526004016125a49061531f565b60405180910390fd5b6005808111156125e6577f4e487b7100000000000000000000000000000000000000000000000000000000600052602160045260246000fd5b6002600083815260200190815260200160002060050160009054906101000a900460ff166005811115612642577f4e487b7100000000000000000000000000000000000000000000000000000000600052602160045260246000fd5b1415612683576040517f08c379a000000000000000000000000000000000000000000000000000000000815260040161267a906154ff565b60405180910390fd5b600460058111156126bd577f4e487b7100000000000000000000000000000000000000000000000000000000600052602160045260246000fd5b6002600083815260200190815260200160002060050160009054906101000a900460ff166005811115612719577f4e487b7100000000000000000000000000000000000000000000000000000000600052602160045260246000fd5b141561275a576040517f08c379a0000000000000000000000000000000000000000000000000000000008152600401612751906152ff565b60405180910390fd5b60046002600083815260200190815260200160002060050160006101000a81548160ff021916908360058111156127ba577f4e487b7100000000000000000000000000000000000000000000000000000000600052602160045260246000fd5b02179055507f3346abf262ac5179e9052765fb72484e0baab1f356f08442bb7a3054147631de8160046040516127f192919061557a565b60405180910390a150565b600581565b612809614624565b73ffffffffffffffffffffffffffffffffffffffff166128276120b0565b73ffffffffffffffffffffffffffffffffffffffff161461287d576040517f08c379a0000000000000000000000000000000000000000000000000000000008152600401612874906153bf565b60405180910390fd5b600a60149054906101000a900460ff16156128cd576040517f08c379a00000000000000000000000000000000000000000000000000000000081526004016128c49061545f565b60405180910390fd5b600454811115612912576040517f08c379a00000000000000000000000000000000000000000000000000000000081526004016129099061523f565b60405180910390fd5b6002600581111561294c577f4e487b7100000000000000000000000000000000000000000000000000000000600052602160045260246000fd5b6002600083815260200190815260200160002060050160009054906101000a900460ff1660058111156129a8577f4e487b7100000000000000000000000000000000000000000000000000000000600052602160045260246000fd5b146129e8576040517f08c379a00000000000000000000000000000000000000000000000000000000081526004016129df9061539f565b60405180910390fd5b60036002600083815260200190815260200160002060050160006101000a81548160ff02191690836005811115612a48577f4e487b7100000000000000000000000000000000000000000000000000000000600052602160045260246000fd5b02179055507f3346abf262ac5179e9052765fb72484e0baab1f356f08442bb7a3054147631de816003604051612a7f92919061557a565b60405180910390a150565b6000600a60149054906101000a900460ff16905090565b60606008805480602002602001604051908101604052809291908181526020018280548015612b2557602002820191906000526020600020905b8160009054906101000a900473ffffffffffffffffffffffffffffffffffffffff1673ffffffffffffffffffffffffffffffffffffffff1681526020019060010190808311612adb575b5050505050905090565b600a60149054906101000a900460ff1615612b7f576040517f08c379a0000000000000000000000000000000000000000000000000000000008152600401612b769061545f565b60405180910390fd5b600454811115612bc4576040517f08c379a0000000000000000000000000000000000000000000000000000000008152600401612bbb9061523f565b60405180910390fd5b6000600260008381526020019081526020016000206040518060c0016040529081600082018054612bf49061587f565b80601f0160208091040260200160405190810160405280929190818152602001828054612c209061587f565b8015612c6d5780601f10612c4257610100808354040283529160200191612c6d565b820191906000526020600020905b815481529060010190602001808311612c5057829003601f168201915b50505050508152602001600182015481526020016002820154815260200160038201548152602001600482015481526020016005820160009054906101000a900460ff166005811115612ce9577f4e487b7100000000000000000000000000000000000000000000000000000000600052602160045260246000fd5b6005811115612d21577f4e487b7100000000000000000000000000000000000000000000000000000000600052602160045260246000fd5b81525050905060046005811115612d61577f4e487b7100000000000000000000000000000000000000000000000000000000600052602160045260246000fd5b8160a001516005811115612d9e577f4e487b7100000000000000000000000000000000000000000000000000000000600052602160045260246000fd5b1415612ddf576040517f08c379a0000000000000000000000000000000000000000000000000000000008152600401612dd69061529f565b60405180910390fd5b60036005811115612e19577f4e487b7100000000000000000000000000000000000000000000000000000000600052602160045260246000fd5b8160a001516005811115612e56577f4e487b7100000000000000000000000000000000000000000000000000000000600052602160045260246000fd5b1415612e97576040517f08c379a0000000000000000000000000000000000000000000000000000000008152600401612e8e9061531f565b60405180910390fd5b600580811115612ed0577f4e487b7100000000000000000000000000000000000000000000000000000000600052602160045260246000fd5b8160a001516005811115612f0d577f4e487b7100000000000000000000000000000000000000000000000000000000600052602160045260246000fd5b1415612f4e576040517f08c379a0000000000000000000000000000000000000000000000000000000008152600401612f459061549f565b60405180910390fd5b60006005811115612f88577f4e487b7100000000000000000000000000000000000000000000000000000000600052602160045260246000fd5b8160a001516005811115612fc5577f4e487b7100000000000000000000000000000000000000000000000000000000600052602160045260246000fd5b148015612fd55750806060015143105b15613015576040517f08c379a000000000000000000000000000000000000000000000000000000000815260040161300c906153ff565b60405180910390fd5b6001600581111561304f577f4e487b7100000000000000000000000000000000000000000000000000000000600052602160045260246000fd5b8160a00151600581111561308c577f4e487b7100000000000000000000000000000000000000000000000000000000600052602160045260246000fd5b14801561309d575080606001514310155b80156130ad575080608001514311155b156130ed576040517f08c379a00000000000000000000000000000000000000000000000000000000081526004016130e49061521f565b60405180910390fd5b80606001514310158015613105575080608001514311155b8015613186575060016005811115613146577f4e487b7100000000000000000000000000000000000000000000000000000000600052602160045260246000fd5b8160a001516005811115613183577f4e487b7100000000000000000000000000000000000000000000000000000000600052602160045260246000fd5b14155b1561320d5760018160a0019060058111156131ca577f4e487b7100000000000000000000000000000000000000000000000000000000600052602160045260246000fd5b90816005811115613204577f4e487b7100000000000000000000000000000000000000000000000000000000600052602160045260246000fd5b815250506134c8565b806060015143108015613295575060006005811115613255577f4e487b7100000000000000000000000000000000000000000000000000000000600052602160045260246000fd5b8160a001516005811115613292577f4e487b7100000000000000000000000000000000000000000000000000000000600052602160045260246000fd5b14155b1561331c5760008160a0019060058111156132d9577f4e487b7100000000000000000000000000000000000000000000000000000000600052602160045260246000fd5b90816005811115613313577f4e487b7100000000000000000000000000000000000000000000000000000000600052602160045260246000fd5b815250506134c7565b8060800151431180156133a4575060026005811115613364577f4e487b7100000000000000000000000000000000000000000000000000000000600052602160045260246000fd5b8160a0015160058111156133a1577f4e487b7100000000000000000000000000000000000000000000000000000000600052602160045260246000fd5b14155b156134c657600554816040015182602001516133c09190615721565b106134475760028160a001906005811115613404577f4e487b7100000000000000000000000000000000000000000000000000000000600052602160045260246000fd5b9081600581111561343e577f4e487b7100000000000000000000000000000000000000000000000000000000600052602160045260246000fd5b815250506134c5565b60058160a001906005811115613486577f4e487b7100000000000000000000000000000000000000000000000000000000600052602160045260246000fd5b908160058111156134c0577f4e487b7100000000000000000000000000000000000000000000000000000000600052602160045260246000fd5b815250505b5b5b5b806002600084815260200190815260200160002060008201518160000190805190602001906134f8929190614640565b506020820151816001015560408201518160020155606082015181600301556080820151816004015560a08201518160050160006101000a81548160ff02191690836005811115613572577f4e487b7100000000000000000000000000000000000000000000000000000000600052602160045260246000fd5b02179055509050507f3346abf262ac5179e9052765fb72484e0baab1f356f08442bb7a3054147631de828260a001516040516135af92919061557a565b60405180910390a15050565b600a60149054906101000a900460ff161561360b576040517f08c379a00000000000000000000000000000000000000000000000000000000081526004016136029061545f565b60405180910390fd5b6000600a60009054906101000a900473ffffffffffffffffffffffffffffffffffffffff1673ffffffffffffffffffffffffffffffffffffffff16633a02a42d613653614624565b6040518263ffffffff1660e01b815260040161366f9190614f8c565b60206040518083038186803b15801561368757600080fd5b505afa15801561369b573d6000803e3d6000fd5b505050506040513d601f19601f820116820180604052508101906136bf9190614a1c565b905060008111613704576040517f08c379a00000000000000000000000000000000000000000000000000000000081526004016136fb906154bf565b60405180910390fd5b60001515600360008581526020019081526020016000206000613725614624565b73ffffffffffffffffffffffffffffffffffffffff1673ffffffffffffffffffffffffffffffffffffffff16815260200190815260200160002060009054906101000a900460ff161515146137af576040517f08c379a00000000000000000000000000000000000000000000000000000000081526004016137a69061553f565b60405180910390fd5b6000600260008581526020019081526020016000206040518060c00160405290816000820180546137df9061587f565b80601f016020809104026020016040519081016040528092919081815260200182805461380b9061587f565b80156138585780601f1061382d57610100808354040283529160200191613858565b820191906000526020600020905b81548152906001019060200180831161383b57829003601f168201915b50505050508152602001600182015481526020016002820154815260200160038201548152602001600482015481526020016005820160009054906101000a900460ff1660058111156138d4577f4e487b7100000000000000000000000000000000000000000000000000000000600052602160045260246000fd5b600581111561390c577f4e487b7100000000000000000000000000000000000000000000000000000000600052602160045260246000fd5b8152505090506001600581111561394c577f4e487b7100000000000000000000000000000000000000000000000000000000600052602160045260246000fd5b8160a001516005811115613989577f4e487b7100000000000000000000000000000000000000000000000000000000600052602160045260246000fd5b14801561399a575080608001514311155b6139d9576040517f08c379a00000000000000000000000000000000000000000000000000000000081526004016139d09061551f565b60405180910390fd5b82156139fd5781816020018181516139f19190615721565b91508181525050613a17565b8181604001818151613a0f9190615721565b915081815250505b6001600360008681526020019081526020016000206000613a36614624565b73ffffffffffffffffffffffffffffffffffffffff1673ffffffffffffffffffffffffffffffffffffffff16815260200190815260200160002060006101000a81548160ff021916908315150217905550600a60009054906101000a900473ffffffffffffffffffffffffffffffffffffffff1673ffffffffffffffffffffffffffffffffffffffff1663c591aa98613acd614624565b60026000888152602001908152602001600020600401546040518363ffffffff1660e01b8152600401613b01929190615097565b602060405180830381600087803b158015613b1b57600080fd5b505af1158015613b2f573d6000803e3d6000fd5b505050506040513d601f19601f82011682018060405250810190613b539190614989565b613b92576040517f08c379a0000000000000000000000000000000000000000000000000000000008152600401613b89906153df565b60405180910390fd5b80600260008681526020019081526020016000206000820151816000019080519060200190613bc2929190614640565b506020820151816001015560408201518160020155606082015181600301556080820151816004015560a08201518160050160006101000a81548160ff02191690836005811115613c3c577f4e487b7100000000000000000000000000000000000000000000000000000000600052602160045260246000fd5b02179055509050507fea66f58e474bc09f580000e81f31b334d171db387d0c6098ba47bd897741679b613c6d614624565b8584604051613c7e939291906150c0565b60405180910390a150505050565b60045481565b613c9a614624565b73ffffffffffffffffffffffffffffffffffffffff16613cb86120b0565b73ffffffffffffffffffffffffffffffffffffffff1614613d0e576040517f08c379a0000000000000000000000000000000000000000000000000000000008152600401613d05906153bf565b60405180910390fd5b600a60149054906101000a900460ff1615613d5e576040517f08c379a0000000000000000000000000000000000000000000000000000000008152600401613d559061545f565b60405180910390fd5b6000600660009054906101000a900473ffffffffffffffffffffffffffffffffffffffff16905081600660006101000a81548173ffffffffffffffffffffffffffffffffffffffff021916908373ffffffffffffffffffffffffffffffffffffffff160217905550600660009054906101000a900473ffffffffffffffffffffffffffffffffffffffff16600960006101000a81548173ffffffffffffffffffffffffffffffffffffffff021916908373ffffffffffffffffffffffffffffffffffffffff1602179055507f1b736919e446059718572a81155f93b87161eec8f2f468e0a2c4f97cff2ec9c0600660009054906101000a900473ffffffffffffffffffffffffffffffffffffffff1682613e76614624565b604051613e8593929190614fd0565b60405180910390a15050565b613e99614624565b73ffffffffffffffffffffffffffffffffffffffff16613eb76120b0565b73ffffffffffffffffffffffffffffffffffffffff1614613f0d576040517f08c379a0000000000000000000000000000000000000000000000000000000008152600401613f04906153bf565b60405180910390fd5b600a60149054906101000a900460ff1615613f5d576040517f08c379a0000000000000000000000000000000000000000000000000000000008152600401613f549061545f565b60405180910390fd5b60008111613fa0576040517f08c379a0000000000000000000000000000000000000000000000000000000008152600401613f979061537f565b60405180910390fd5b600960009054906101000a900473ffffffffffffffffffffffffffffffffffffffff1673ffffffffffffffffffffffffffffffffffffffff166318160ddd6040518163ffffffff1660e01b815260040160206040518083038186803b15801561400857600080fd5b505afa15801561401c573d6000803e3d6000fd5b505050506040513d601f19601f820116820180604052508101906140409190614a1c565b8110614081576040517f08c379a00000000000000000000000000000000000000000000000000000000081526004016140789061535f565b60405180910390fd5b8060058190555050565b614093614624565b73ffffffffffffffffffffffffffffffffffffffff166140b16120b0565b73ffffffffffffffffffffffffffffffffffffffff1614614107576040517f08c379a00000000000000000000000000000000000000000000000000000000081526004016140fe906153bf565b60405180910390fd5b600073ffffffffffffffffffffffffffffffffffffffff168173ffffffffffffffffffffffffffffffffffffffff161415614177576040517f08c379a000000000000000000000000000000000000000000000000000000000815260040161416e906152bf565b60405180910390fd5b8073ffffffffffffffffffffffffffffffffffffffff1660008054906101000a900473ffffffffffffffffffffffffffffffffffffffff1673ffffffffffffffffffffffffffffffffffffffff167f8be0079c531659141344cd1fd0a4f28419497f9722a3daafe3b4186f6b6457e060405160405180910390a3806000806101000a81548173ffffffffffffffffffffffffffffffffffffffff021916908373ffffffffffffffffffffffffffffffffffffffff16021790555050565b61423c614624565b73ffffffffffffffffffffffffffffffffffffffff1661425a6120b0565b73ffffffffffffffffffffffffffffffffffffffff16146142b0576040517f08c379a00000000000000000000000000000000000000000000000000000000081526004016142a7906153bf565b60405180910390fd5b600a60149054906101000a900460ff1615614300576040517f08c379a00000000000000000000000000000000000000000000000000000000081526004016142f79061545f565b60405180910390fd5b6000600760009054906101000a900473ffffffffffffffffffffffffffffffffffffffff16905081600760006101000a81548173ffffffffffffffffffffffffffffffffffffffff021916908373ffffffffffffffffffffffffffffffffffffffff160217905550600760009054906101000a900473ffffffffffffffffffffffffffffffffffffffff16600a60006101000a81548173ffffffffffffffffffffffffffffffffffffffff021916908373ffffffffffffffffffffffffffffffffffffffff1602179055507fa47a663187732da575fa498cee4f254ed77b7bc0baa7bf09a7da9f55dd604df1600760009054906101000a900473ffffffffffffffffffffffffffffffffffffffff1682614418614624565b60405161442793929190614fd0565b60405180910390a15050565b600060045482111561447a576040517f08c379a00000000000000000000000000000000000000000000000000000000081526004016144719061523f565b60405180910390fd5b600260058111156144b4577f4e487b7100000000000000000000000000000000000000000000000000000000600052602160045260246000fd5b6002600084815260200190815260200160002060050160009054906101000a900460ff166005811115614510577f4e487b7100000000000000000000000000000000000000000000000000000000600052602160045260246000fd5b14806145af575060036005811115614551577f4e487b7100000000000000000000000000000000000000000000000000000000600052602160045260246000fd5b6002600084815260200190815260200160002060050160009054906101000a900460ff1660058111156145ad577f4e487b7100000000000000000000000000000000000000000000000000000000600052602160045260246000fd5b145b6145ee576040517f08c379a00000000000000000000000000000000000000000000000000000000081526004016145e5906152df565b60405180910390fd5b60026000838152602001908152602001600020600201546002600084815260200190815260200160002060010154119050919050565b600033905090565b600063150b7a0260e01b9050949350505050565b82805461464c9061587f565b90600052602060002090601f01602090048101928261466e57600085556146b5565b82601f1061468757805160ff19168380011785556146b5565b828001600101855582156146b5579182015b828111156146b4578251825591602001919060010190614699565b5b5090506146c291906146c6565b5090565b5b808211156146df5760008160009055506001016146c7565b5090565b60006146f66146f18461563d565b615618565b90508281526020810184848401111561470e57600080fd5b61471984828561583d565b509392505050565b600061473461472f8461566e565b615618565b90508281526020810184848401111561474c57600080fd5b61475784828561583d565b509392505050565b60008135905061476e81615ee2565b92915050565b60008151905061478381615ee2565b92915050565b60008135905061479881615ef9565b92915050565b6000815190506147ad81615ef9565b92915050565b600082601f8301126147c457600080fd5b81356147d48482602086016146e3565b91505092915050565b600082601f8301126147ee57600080fd5b81356147fe848260208601614721565b91505092915050565b60008135905061481681615f10565b92915050565b60008151905061482b81615f10565b92915050565b60006020828403121561484357600080fd5b60006148518482850161475f565b91505092915050565b60006020828403121561486c57600080fd5b600061487a84828501614774565b91505092915050565b60008060006060848603121561489857600080fd5b60006148a68682870161475f565b93505060206148b78682870161475f565b92505060406148c886828701614807565b9150509250925092565b600080600080608085870312156148e857600080fd5b60006148f68782880161475f565b94505060206149078782880161475f565b935050604061491887828801614807565b925050606085013567ffffffffffffffff81111561493557600080fd5b614941878288016147b3565b91505092959194509250565b6000806040838503121561496057600080fd5b600061496e8582860161475f565b925050602061497f85828601614807565b9150509250929050565b60006020828403121561499b57600080fd5b60006149a98482850161479e565b91505092915050565b6000602082840312156149c457600080fd5b600082013567ffffffffffffffff8111156149de57600080fd5b6149ea848285016147dd565b91505092915050565b600060208284031215614a0557600080fd5b6000614a1384828501614807565b91505092915050565b600060208284031215614a2e57600080fd5b6000614a3c8482850161481c565b91505092915050565b60008060408385031215614a5857600080fd5b6000614a6685828601614807565b9250506020614a7785828601614789565b9150509250929050565b6000614a8d8383614a99565b60208301905092915050565b614aa281615797565b82525050565b614ab181615797565b82525050565b6000614ac2826156c4565b614acc81856156ff565b9350614ad78361569f565b8060005b83811015614b08578151614aef8882614a81565b9750614afa836156e5565b925050600181019050614adb565b5085935050505092915050565b6000614b20826156cf565b614b2a81856156ff565b9350614b35836156af565b8060005b83811015614b6d57614b4a82615a01565b614b548882614a81565b9750614b5f836156f2565b925050600181019050614b39565b5085935050505092915050565b614b83816157a9565b82525050565b614b92816157b5565b82525050565b614ba18161582b565b82525050565b6000614bb2826156da565b614bbc8185615710565b9350614bcc81856020860161584c565b614bd581615a14565b840191505092915050565b6000614bed601683615710565b9150614bf882615a32565b602082019050919050565b6000614c10601683615710565b9150614c1b82615a5b565b602082019050919050565b6000614c33601583615710565b9150614c3e82615a84565b602082019050919050565b6000614c56602183615710565b9150614c6182615aad565b604082019050919050565b6000614c79601283615710565b9150614c8482615afc565b602082019050919050565b6000614c9c602683615710565b9150614ca782615b25565b604082019050919050565b6000614cbf602583615710565b9150614cca82615b74565b604082019050919050565b6000614ce2601a83615710565b9150614ced82615bc3565b602082019050919050565b6000614d05601983615710565b9150614d1082615bec565b602082019050919050565b6000614d28601f83615710565b9150614d3382615c15565b602082019050919050565b6000614d4b601b83615710565b9150614d5682615c3e565b602082019050919050565b6000614d6e601283615710565b9150614d7982615c67565b602082019050919050565b6000614d91601e83615710565b9150614d9c82615c90565b602082019050919050565b6000614db4602083615710565b9150614dbf82615cb9565b602082019050919050565b6000614dd7601583615710565b9150614de282615ce2565b602082019050919050565b6000614dfa601b83615710565b9150614e0582615d0b565b602082019050919050565b6000614e1d601d83615710565b9150614e2882615d34565b602082019050919050565b6000614e40601383615710565b9150614e4b82615d5d565b602082019050919050565b6000614e63601f83615710565b9150614e6e82615d86565b602082019050919050565b6000614e86601d83615710565b9150614e9182615daf565b602082019050919050565b6000614ea9601e83615710565b9150614eb482615dd8565b602082019050919050565b6000614ecc601283615710565b9150614ed782615e01565b602082019050919050565b6000614eef601f83615710565b9150614efa82615e2a565b602082019050919050565b6000614f12601e83615710565b9150614f1d82615e53565b602082019050919050565b6000614f35601d83615710565b9150614f4082615e7c565b602082019050919050565b6000614f58601f83615710565b9150614f6382615ea5565b602082019050919050565b614f7781615814565b82525050565b614f868161581e565b82525050565b6000602082019050614fa16000830184614aa8565b92915050565b6000604082019050614fbc6000830185614aa8565b614fc96020830184614aa8565b9392505050565b6000606082019050614fe56000830186614aa8565b614ff26020830185614aa8565b614fff6040830184614aa8565b949350505050565b600060608201905061501c6000830186614aa8565b6150296020830185614aa8565b6150366040830184614f6e565b949350505050565b60006040820190506150536000830185614aa8565b81810360208301526150658184614b15565b90509392505050565b60006040820190506150836000830185614aa8565b6150906020830184614b7a565b9392505050565b60006040820190506150ac6000830185614aa8565b6150b96020830184614f6e565b9392505050565b60006060820190506150d56000830186614aa8565b6150e26020830185614f6e565b6150ef6040830184614f6e565b949350505050565b600060208201905081810360008301526151118184614ab7565b905092915050565b600060208201905061512e6000830184614b7a565b92915050565b60006020820190506151496000830184614b89565b92915050565b600060c08201905081810360008301526151698189614ba7565b90506151786020830188614f6e565b6151856040830187614f6e565b6151926060830186614f6e565b61519f6080830185614f6e565b6151ac60a0830184614b98565b979650505050505050565b600060c08201905081810360008301526151d18189614ba7565b90506151e06020830188614f6e565b6151ed6040830187614f6e565b6151fa6060830186614f6e565b6152076080830185614f6e565b61521460a0830184614f7d565b979650505050505050565b6000602082019050818103600083015261523881614be0565b9050919050565b6000602082019050818103600083015261525881614c03565b9050919050565b6000602082019050818103600083015261527881614c26565b9050919050565b6000602082019050818103600083015261529881614c49565b9050919050565b600060208201905081810360008301526152b881614c6c565b9050919050565b600060208201905081810360008301526152d881614c8f565b9050919050565b600060208201905081810360008301526152f881614cb2565b9050919050565b6000602082019050818103600083015261531881614cd5565b9050919050565b6000602082019050818103600083015261533881614cf8565b9050919050565b6000602082019050818103600083015261535881614d1b565b9050919050565b6000602082019050818103600083015261537881614d3e565b9050919050565b6000602082019050818103600083015261539881614d61565b9050919050565b600060208201905081810360008301526153b881614d84565b9050919050565b600060208201905081810360008301526153d881614da7565b9050919050565b600060208201905081810360008301526153f881614dca565b9050919050565b6000602082019050818103600083015261541881614ded565b9050919050565b6000602082019050818103600083015261543881614e10565b9050919050565b6000602082019050818103600083015261545881614e33565b9050919050565b6000602082019050818103600083015261547881614e56565b9050919050565b6000602082019050818103600083015261549881614e79565b9050919050565b600060208201905081810360008301526154b881614e9c565b9050919050565b600060208201905081810360008301526154d881614ebf565b9050919050565b600060208201905081810360008301526154f881614ee2565b9050919050565b6000602082019050818103600083015261551881614f05565b9050919050565b6000602082019050818103600083015261553881614f28565b9050919050565b6000602082019050818103600083015261555881614f4b565b9050919050565b60006020820190506155746000830184614f6e565b92915050565b600060408201905061558f6000830185614f6e565b61559c6020830184614b98565b9392505050565b60006080820190506155b86000830187614f6e565b81810360208301526155ca8186614ba7565b90506155d96040830185614f6e565b6155e66060830184614f6e565b95945050505050565b60006040820190506156046000830185614f6e565b6156116020830184614f6e565b9392505050565b6000615622615633565b905061562e82826158cb565b919050565b6000604051905090565b600067ffffffffffffffff821115615658576156576159d2565b5b61566182615a14565b9050602081019050919050565b600067ffffffffffffffff821115615689576156886159d2565b5b61569282615a14565b9050602081019050919050565b6000819050602082019050919050565b60008190508160005260206000209050919050565b600081519050919050565b600081549050919050565b600081519050919050565b6000602082019050919050565b6000600182019050919050565b600082825260208201905092915050565b600082825260208201905092915050565b600061572c82615814565b915061573783615814565b9250827fffffffffffffffffffffffffffffffffffffffffffffffffffffffffffffffff0382111561576c5761576b615945565b5b828201905092915050565b600073ffffffffffffffffffffffffffffffffffffffff82169050919050565b60006157a2826157f4565b9050919050565b60008115159050919050565b60007fffffffff0000000000000000000000000000000000000000000000000000000082169050919050565b60008190506157ef82615ece565b919050565b600073ffffffffffffffffffffffffffffffffffffffff82169050919050565b6000819050919050565b600060ff82169050919050565b6000615836826157e1565b9050919050565b82818337600083830152505050565b60005b8381101561586a57808201518184015260208101905061584f565b83811115615879576000848401525b50505050565b6000600282049050600182168061589757607f821691505b602082108114156158ab576158aa6159a3565b5b50919050565b60006158c46158bf83615a25565b615777565b9050919050565b6158d482615a14565b810181811067ffffffffffffffff821117156158f3576158f26159d2565b5b80604052505050565b600061590782615814565b91507fffffffffffffffffffffffffffffffffffffffffffffffffffffffffffffffff82141561593a57615939615945565b5b600182019050919050565b7f4e487b7100000000000000000000000000000000000000000000000000000000600052601160045260246000fd5b7f4e487b7100000000000000000000000000000000000000000000000000000000600052602160045260246000fd5b7f4e487b7100000000000000000000000000000000000000000000000000000000600052602260045260246000fd5b7f4e487b7100000000000000000000000000000000000000000000000000000000600052604160045260246000fd5b6000615a0d82546158b1565b9050919050565b6000601f19601f8301169050919050565b60008160001c9050919050565b7f5374696c6c20696e20766f74696e6720706572696f6400000000000000000000600082015250565b7f50726f706f73616c20646f65736e277420657869737400000000000000000000600082015250565b7f4552433230207472616e73666572206661696c65640000000000000000000000600082015250565b7f6475726174696f6e206d757374206265203e33303835302026203c313930303060008201527f3000000000000000000000000000000000000000000000000000000000000000602082015250565b7f50726f706f73616c2063616e63656c6c65640000000000000000000000000000600082015250565b7f4f776e61626c653a206e6577206f776e657220697320746865207a65726f206160008201527f6464726573730000000000000000000000000000000000000000000000000000602082015250565b7f50726f706f73616c206d7573742062652046494e4953484544206f722052455360008201527f4f4c564544000000000000000000000000000000000000000000000000000000602082015250565b7f50726f706f73616c20616c72656164792063616e63656c6c6564000000000000600082015250565b7f50726f706f73616c20616c7265616479207265736f6c76656400000000000000600082015250565b7f63726561746550726f706f73616c3a20746f6b656e206c6f636b206661696c00600082015250565b7f766f746573206e6565646564203e20746f6b656e20737570706c790000000000600082015250565b7f71756f72756d2063616e6e6f7420626520300000000000000000000000000000600082015250565b7f50726f706f73616c206e6f7420696e20564f5445535f46494e49534845440000600082015250565b7f4f776e61626c653a2063616c6c6572206973206e6f7420746865206f776e6572600082015250565b7f766f74653a20746f6b656e206c6f636b206661696c0000000000000000000000600082015250565b7f546f6f206561726c7920746f206d6f766520746f20766f74696e670000000000600082015250565b7f6d757374207374616b6520746f206372656174652070726f706f73616c000000600082015250565b7f4e4654207472616e73666572206661696c656400000000000000000000000000600082015250565b7f63616e6e6f742062652063616c6c65642061667465722073687574646f776e00600082015250565b7f43616e27742063616e63656c20696620766f74652066696e6973686564000000600082015250565b7f50726f706f73616c206661696c656420746f206d6565742071756f72756d0000600082015250565b7f6d757374207374616b6520746f20766f74650000000000000000000000000000600082015250565b7f5265656e7472616e637947756172643a207265656e7472616e742063616c6c00600082015250565b7f50726f706f73616c20616c7265616479206661696c65642071756f72756d0000600082015250565b7f50726f706f73616c206e6f7420696e20766f74696e6720706572696f64000000600082015250565b7f416c726561647920766f7465642066726f6d2074686973206164647265737300600082015250565b60068110615edf57615ede615974565b5b50565b615eeb81615797565b8114615ef657600080fd5b50565b615f02816157a9565b8114615f0d57600080fd5b50565b615f1981615814565b8114615f2457600080fd5b5056fea2646970667358221220a5d8fe2495ac98dc4e139a82e9ddcb98b7d4328a138acee9254518eb16a2f38f64736f6c63430008040033",
  "linkReferences": {},
  "deployedLinkReferences": {}
}